:10000000004400200990010001C9011001C901103C
:1000100001C9011001C9011001C9011001C9011074
:1000200001C9011001C9011001C9011001C9011064
:1000300001C9011001C901103FC90110DFF800F02A
:1000400085BF0110DFF800F061C00110DFF800F09B
:1000500079BF0110DFF800F0A9C00110DFF800F04F
:1000600089AF0110DFF800F055BC011020B1082362
:1000700030220021FFF7EABF7047F8B51C008CB0B2
:1000800005460E46174603D1002300F0BBFA0CE0EC
:100090006846FFF7EBFF206805906B4660680890A4
:1000A0003A4600F004F800F0ADFA0DB0F0BD207A49
:1000B000ADF81800314628467047FFF7CBBFFFF771
:1000C000BDBFFFF7CBBF80B500F0BCFA401E80413A
:1000D000C00F02BD00F0BCBA00F0C4BAFFF7C2BF47
:1000E000002101604FF0FF31416001210172704732
:1000F000FFF7A8BFDFF800F0B9BA0110DFF800F091
:10010000E5C00110DFF800F01FBE0110DFF800F0BD
:10011000C1BF0110DFF800F069B20110DFF800F094
:10012000DDC00110DFF800F091BE011020B10823FE
:1001300024220021FFF7EABF7047F0B51C0089B008
:1001400005460E46174603D10023FFF7E3FF0FE0F5
:100150006846FFF7EBFFA06806906B462178ADF884
:1001600010103A466068059031462846FFF7D2FFE6
:100170000F48104A01681160284609B0F0BDFFF72A
:10018000CDBFFFF7CFBF00F075BA80B500F089FA98
:1001900000B10120C0B202BD002181600170416048
:1001A0007047FFF7ABBFFFF7ADBFFFF7A3BF00007E
:1001B000949101005C100011DFF800F011BF0110F4
:1001C000DFF800F005B30110DFF800F015C00110F2
:1001D000DFF800F015C1011020B10823282200210A
:1001E000FFF7F2BF7047002101604160C1604FF02E
:1001F000FF318160704770B514008AB005460E4625
:1002000003D1002200F054FA0CE06846FFF7E4FF47
:10021000206804906A4660680590314600F004F852
:1002200000F046FA0AB070BDE0680790A06806903A
:1002300028467047FFF7CCBFFFF7BEBF00F044BAB7
:1002400080B500F0FFF9012818BF002002BD00F0C2
:1002500045BAFFF7B5BF00F051BA0246022910783F
:1002600003D1517800EB01207047032906D1517862
:10027000927800EB012000EB02407047042908D17E
:100280005178937800EB0120D17800EB034000EB2C
:100290000160704744490A681040C2430A600A6816
:1002A0000242FAD17047414A11680029FCD100236B
:1002B000D3611060D0690028FCD0D16150687047CC
:1002C0003B48016821F0020141F400710160032103
:1002D0003848816041F2300141610121C160502103
:1002E00041610121C1604FF4CA6141610121C160D6
:1002F0000160704730B50446002000E0401C984281
:1003000009DA54F8205015F1010F04D015408D4240
:10031000F4D1C0B230BDFF2030BDD0B584B001886B
:10032000B1F5C15F24D14269009200278169019132
:10033000C069029020480168C1F303665DF8274058
:1003400084B105234FF0FF321C492046FFF7D2FF4E
:10035000042807DC54F8201021F4702141EA0641FA
:1003600044F820107F1C032FE8DB002004B0D0BD30
:100370000120FBE712490A681040C2430A60704737
:10038000104802680A6082684A60C2688A60406BEE
:1003900020F0784040F08050C8607047014610223D
:1003A000094800F0AFB800001010044000100440ED
:1003B0000000046000410440541300500200F8445F
:1003C000081004404C13005018000021704710B56D
:1003D0000446FFF774FE002161602160BDE8104013
:1003E000FFF786BE38B50546FFF769FE2C683CB1BD
:1003F00021682960216800291ABF00224A606960CB
:10040000FFF776FE204632BD38B500F00FF8002128
:100410002960616869606168002914BF0D6025600A
:100420006560FFE7BDE83240FFF762BE04460D4657
:10043000FFF745BE38B5FFF7F9FF29686A6800295C
:100440000CBF62604A6069682A6800290CBF22609C
:100450000A60E7E7DFF800F009C00110DFF800F0FC
:10046000059B0110DFF800F0E1A30110DFF800F0B8
:100470005DB40110DFF800F00DC1011020B10823B8
:1004800024220021FFF7E6BF704730B589B004464B
:100490000D4600F00BF801218DF818106A46294628
:1004A0002046FFF7E3FF204609B030BD6846E5E788
:1004B000FFF7E0BF80B5FFF7D1FF10B94FF0FF3075
:1004C00002BD002002BDFFF7CDBF10B501688A084C
:1004D0009300CC0801F0030003F00403E20018438A
:1004E0000B0902F008021C0110434A0904F0100431
:1004F0005301204303F020031843890940EA811087
:10050000C0B210BD62B38B0708D0521E11F8013B78
:1005100000F8013B00F024808B07F6D1830740F000
:10052000208000BF103A07D330B4B1E83810103A39
:10053000A0E83810F9D230BC530724BFB1E8081046
:10054000A0E8081044BF51F8043B40F8043BD20730
:1005500024BF31F8022B20F8022B44BF0B78037024
:100560007047121F17D35B0009D151F8043B20F8E4
:10057000023B1B0C121F20F8023BF6D20BE051F895
:10058000043B00F8013B1B0A20F8023B1B0C121F26
:1005900000F8013BF3D238BF121D521E24BF11F8E0
:1005A000013B00F8013BF8D8704730B4002513E058
:1005B00050F8042BD30744BFA9F101039A18091F6F
:1005C000042942F8045BFAD213468C0744BF158015
:1005D0009B1CC90748BF1D7050F8041B0029E7D1B8
:1005E00030BC7047002203F0BFB901700A0A0B0C3F
:1005F000090E42708370C170001D7047DFF800F073
:10060000BDAA0110F8B504460B480C4F0668F869FE
:100610000D4650F82510B1420AD1094800902946EC
:100620002046FFF7EBFFF86950F82510B14201D1E1
:100630000020F2BD2046F2BD181200004401002047
:10064000B80300200148007D704700BFA4010020CE
:10065000102803D302491038C1F8000F704700BFBB
:1006600000E000E08160426070470000DFF800F0C9
:100670009DB2011070B5044603F084F90646A08AC5
:100680000025012808D1FFF7F1FF0546E068A168C1
:10069000451BA94238BF0025304603F074F92846AF
:1006A00070BD808A70470000DFF800F079AD01105E
:1006B00010B50446034BFFF7F7FFA06800B12046D2
:1006C00010BD00BFB803002001488068704700BF1C
:1006D000C8010020DFF800F011B0011038B5044661
:1006E0000D4603F05DF9616A0D43656203F059F947
:1006F0002046BDE83240FFF7EDBFFF7F70B50D46E5
:1007000015F1010F044608BF052503F049F9064617
:100710000120A840A06165612946054A506903F09F
:100720003DF9A0623046BDE8704003F03AB900BF21
:10073000C8010020DFF800F031BF0110DFF800F041
:10074000F5B7011030BF7047FCE738B502F02EFE58
:1007500002F0DEFD02F0EFF8054605F00C000C2873
:1007600053D0680729D403F043F90446012101203E
:1007700002F0E5F83349096801FB04F290421CD20B
:10078000F020B0FBF1F03049241A887C18B1C86819
:10079000A04238BF04462D4D214605F10C00FFF75D
:1007A000ADFC05F10C00FFF7ADFC012002F049FAA9
:1007B00005F10C00FFF79EFC29E0280725D4244C06
:1007C0002448216A8A6890470428F8D0EA0622491A
:1007D00000D420B9086840F00100086003E00A680E
:1007E000520852000A601D481D4D016841F0030186
:1007F0000160202022689169884728682068816B01
:10080000884701212960286801E0FFF79DFFBDE8C6
:10081000314002F0CFBD10B5124CFFF78BFF2060C6
:100820001148006808B18047606010BD10B50F48DE
:100830000C4C016809B1606888472068BDE8104029
:10084000FFF77CBF94910100AC6F01009C05002074
:10085000B8010010004003408C21084024220840C9
:100860002C200940E00F00116C91010070910100F3
:10087000DFF800F035CB00102DE9FC47B14CB24D4C
:100880002678DFF8C882B24FB249002E4FF4A05943
:1008900000F01781072E14D0092E18BF0A2E00F081
:1008A00012810B2E18BF0C2E00F021810D2E00F0AE
:1008B000E480112E54D1A84A107800210BF084FF57
:1008C000002871D0C5F80080426D5378016DA34CAB
:1008D000DFF88C82DB0657D50B4641F2044EB3F8A5
:1008E00002C0F4451FBF5E8B7645B3F832A0F245D7
:1008F00006D041F20A4EF4451CBF7645F24502D1BE
:10090000A7F800E048E04FF0000E40F601044FF475
:10091000806A182606FB0EFC9E1C36F80C603E8092
:1009200016F47F4FF5D0022E40F20681B6EB0A0690
:1009300017D0B6EB0A0611D04FF44064361B01D035
:10094000B61E012E40F2DD80361FFBD040F2FA3495
:10095000361BE9D0761E00F0E680F61E00F0D98046
:10096000A7E01E88A64240F0CC800EF1010EBEF139
:10097000020FCEDD58E0981C20F80C9011E0C96EF3
:100980000A68002010710CE0488E388041F2044162
:10099000401A01D0801F01D12C6045E041F2064091
:1009A0003880C5F800803FE06E488078FF2810D07E
:1009B000C5F800806C4A12681C214143931C5B5AA5
:1009C0003B8013F47F4FF5D040F204441B1B012BF6
:1009D000664876D94FF47F741B1B15D00A3B012B58
:1009E00017D940F6F6341B1B032B84BF5B1F012B6A
:1009F00012D99B1E012B64D940F2FD341B1B0BD076
:100A00005B1E012B05D909E0921C41F201435352B0
:100A100002E0921C22F80190286005E0002007F017
:100A200069FA85200BF046FBBDE8FC47504800788A
:100A3000012107F02FBB4F4C4F4A25684F480068F3
:100A40000023CDE9002355F8089F4D4B0222C847EB
:100A50004C49088035E0092E4ED14B490A6850892F
:100A6000002849D0494908781EF0E2FE0021002004
:100A7000FFF7FEFE0020207023E04888388002281F
:100A80000DD940F20442801A1BD040F6FC72801A45
:100A900005D0083815D04FF47F72801A2CD1887B8E
:100AA000801CC2B2B52AA8BF662088730020488087
:100AB00007E0002007F01EFA8420BDE8F6470BF09F
:100AC000F9BABDE8F3874888388010F47F4FFAD030
:100AD00040F20442801AF4D040F6FC72801ABAD078
:100AE0000838EED04FF47F72801AA4D004E0488812
:100AF000388010F47F4FFAD0002007F0FBF98520F2
:100B0000DBE7807B012818BF042801D0A7F80090FC
:100B100047E7807B01287FF42EAF9A1C41F2024107
:100B200022F80C103DE75078C2067FF528AF886D9B
:100B3000016800220A7134E7002007F0DBF9832006
:100B4000BBE700BF6F4F0020204F00205D910100E8
:100B5000504F00204C1300113A090020C5C000007E
:100B6000AD120100684E00200C1300115108010065
:100B70006E4F0020F04E002002000080EC4E00205E
:100B80002D7E0100424F0020E8080020714F002018
:100B900018B514494A6B5269116891F90040A04296
:100BA00001DA002012BD137903EB4304214411F94B
:100BB000034C8442B8BF581E11DB002100E0491CE1
:100BC0001479CBB2A34208D21368CCB204EB44042C
:100BD0001B578342F3DBC8B212BD92F90500C0B2C5
:100BE00012BD00BFDC82010070B501EB00340A4881
:100BF000016815461E46884703E014F8012B05F8E6
:100C0000012B31464E1E89B20029F6D1BDE8704055
:100C100002490A68104700004003002044030020F6
:100C20000B460146184600F009B801EB003070474A
:100C300080B509490A685369984708E038B5064BFA
:100C40001C68A569A847054A0021116032BD034A06
:100C50000021116002BD0000A80100108404604260
:100C60001CB5104C00206070207004230E48000357
:100C70006A460021000EFFF7B7FF0098B0F5801F0D
:100C800002D10FF0B8FC0BE020B90FF0B4FC0FF06C
:100C9000F2FC05E00FF092FC0FF080FC0420608075
:100CA000607816BD9808002000E00100F8B5054600
:100CB0000E46184F184CA86E0CF0AEF9217888B18A
:100CC0000279032A0ED1037A032B07D04079C2069A
:100CD00004D5491C21703878401C3870A86E0CF07F
:100CE00097F9E8E7A9B10D480278914204D2012EA4
:100CF0000FD10B4A107860B1AA79ADF80020ADF899
:100D000002100DF10202694601200CF08DF900205D
:100D10002070F1BD7A4F0020744F0020754F0020E5
:100D2000764F0020006870470A684B68002A0CBFA5
:100D3000436053604A6809680AB9016070471160EE
:100D40007047120001100776130011580D00115C56
:100D500004C20001C0052001010000900C185200DF
:100D600001100708020020B40400200111C3010093
:100D700001126C18210483010001A10CD003680545
:100D80000020000152981420023401002004523C3B
:100D90000422000150026CDC020001500324040014
:100DA00020030D0006D36B0000196C0000F3010155
:100DB00000012002E40400201712000100020802D2
:100DC0000020000208000000F37901000103000088
:060DD00052000152000177
:10100000B41200001810000015AB0110FDB3011060
:101010006DC00110FDAE011099B5011059BA011053
:1010200039BA01102D000000B01200003C10000081
:10103000B1C00110A9BF011067C0011069B801104B
:10104000B9B9011099B9011030000000B0120000C8
:1010500060100000BDC00110CDB30110D9BD01105A
:101060006DB301108DB80110D9B901103100000025
:1010700000000000D8030020040000000000000071
:101080000000000020000000448601003000000045
:1010900028100000F80300200400000000000000F9
:1010A000000000000C000000488F01001800000044
:1010B0004C100000000400200400000000000000AC
:1010C0000000000024000000608F010018000000F4
:1010D00000000000400400200400000000000000A8
:1010E0000000000010000000348701002C00000008
:1010F000001000005C04002004000000000000005C
:101100000000000020000000C08A01002400000050
:10111000FFFFFFFF64040020040000000000000047
:101120000000000028000000E48A01002400000004
:10113000FFFFFFFF8C0400200400000000000000FF
:101140000000000014000000788F0100180000006B
:10115000FFFFFFFF940400200400000000000000D7
:10116000000000005800000064840100340000000A
:10117000FFFFFFFF9C0400200400000000000000AF
:101180000000000010000000908F01001800000017
:10119000FFFFFFFFA4040020040000000000000087
:1011A000000000001C000000088B0100240000006B
:1011B000FFFFFFFFAC04002004000000000000005F
:1011C0000000000038000000308901002800000005
:1011D000FFFFFFFF140500200400000000000000D6
:1011E0000000000054000000EC8101003C00000001
:1011F00001000000989101000100000000000E00B5
:1012000000000F003200000001000000E003002099
:10121000000200000000000001C9011000000000F1
:101220000000000008000000000022000804002068
:101230000000000000000000080000006C04002016
:101240000000000000000000080000000000000096
:10125000000000000000000000000000010000008D
:10126000B404002006000000010000001C0500205E
:10127000000000000000000000020000000000006C
:10128000290001002500300031002D00010001007F
:10129000040000005C90010000000000000000005D
:1012A000000001000000030013C401102D6C0000B9
:1012B000B8120000B8120000000000005004002026
:1012C000C56A00002000000020900100588901003C
:1012D00029C10110476400007B650000A1C701100F
:1012E000A3C70110000000008F1200006C7D0100F8
:1012F000847D0100547D010002000900010000000E
:1013000001120001FD880100D18801007D8E0100DD
:101310003D850100118601009D7D01000D680100E1
:10132000C18F01003D6A0000B96C0000BD6C000077
:1013300070B500230646DFF8900C00EB831000F137
:101340003C04B4F90050B54204D10D0006D0E47855
:101350000C4203D15B1C082BEDD3002070BD70B58F
:10136000064614461D46FEF7AAFE5EB1D6E90A23DC
:1013700022432B43C6E90A23D6E9082322432B4301
:10138000C6E90823BDE87040FEF7B2BE10B50129DA
:10139000044698BF0121FEF704FF2046BDE8104037
:1013A000FEF701BF38B504460D4601F08DF8A042A6
:1013B00031BF241A641E241A641CA40805F57A702F
:1013C000A04238BFB4F1405F05D2641B012C98BF26
:1013D0000124204632BD002032BD70B50446DFF83E
:1013E000980B40690025E8B1C268117B012501F026
:1013F0000F01022915D10069DFF8803BC168408ADE
:1014000093F862604118192000FB06119068FFF7FD
:10141000C9FFDFF8B81B20600A68B0FBF2F2226057
:1014200001E000202060284670BDDFF8A41B0A6898
:101430000020D30705D5DFF89C0B0068C00900F039
:1014400001007047F8B500F0B4F90546002C1CBF48
:10145000A07A00282AD094F909600127FFF7E5FF58
:1014600007FA06F658B194F90900DFF86C1B4A68D0
:10147000113007FA00F0C04302404A6008600020C3
:10148000A072207220606060C4E90400DFF84C1B89
:10149000A06194F909000A788740174388780F7093
:1014A00008B1401E8870F0B200F070F92846BDE81F
:1014B000F240FEF71DBE032804DADFF8C01A01EB84
:1014C00040107047002070472DE9F0470027DFF8F3
:1014D000108BDFF8A8AADFF8005B11264FF0010996
:1014E000F8B2FFF7E8FF040034D0A07A012831D128
:1014F00094F90900113009FA00F0C14329606968C4
:101500000843686094F9090009FA00F0C0B200F0DD
:1015100031F9002104F1100000F047FF81280AD1C1
:10152000A2691AB10021104600F03FFF812802D1C4
:101530000220A0720EE081280CD09AF8610094F984
:10154000091006FA01F108438AF8610000214046BB
:10155000FEF77DFE7F1C032FC2D3BDE8F0872DE987
:10156000FE4F0446884691461F46FEF7A8FD0197A8
:1015700000976FF0010B02900025DFF8607A0126DA
:1015800097F800A0AE401AEA060F0DD0009810F1AF
:10159000010F1CBF0199A94206D1E8B2FFF78BFFEA
:1015A00010B1817A002947D06D1C032DE7D33DE0AF
:1015B000022818D140F20360208294F90900618A60
:1015C000401D60F30B2161825079618A60F3C7018D
:1015D00061829079618A60F34E316182D079618A4B
:1015E00060F30C31618200220D9878B10278417865
:1015F00094F90900520142EA8102401D42EA0022A8
:101600004FF6FC710A40DFF8BC0B0243A2615FEAAF
:101610000900DFF8641918BFC4F80490086B08B912
:1016200022680A6300F018F994F909B00298FEF7ED
:101630005FFD5846BDE8FE8F0C9A2AEA06063E700A
:101640000123837245722146BB785B1C0446BB7044
:10165000216084F808800FF251506060207A0128E0
:10166000A6D10A20208294F90900401DA074906838
:101670006061B8E738B504281BD1DFF8FC4804F1F5
:10168000DC052846FEF781FD98B12846FEF77BFD74
:10169000DFF8641C0A685043B0F5967F09D22846EB
:1016A000FEF783FD052001F063FA0120607300F06E
:1016B00002F8002032BD042104F13C00FEF7C7BD52
:1016C00038B5DFF8044BDFF8B0586069002161617C
:1016D0000022E068E16005F170000FF20151FEF7B1
:1016E000FBFC0020FEF772FEDFF8100C01680A6BAD
:1016F0009047696B814231BF401A401E401A401C1E
:10170000A9684FF0FF32A2EB10328A4234BF4FF08B
:10171000FF3001EB1030A860287B20B1A96BA868CE
:10172000C90281421FD2FFF780FEC0B1DFF8D00BA3
:1017300040F609010180002200214180417B01F037
:10174000F00141F001014173017B01F0F0010173EF
:101750004260E2612060418811F4406FFBD00120BB
:1017600028730020A860FEF7ABFDDFF8941C002072
:10177000086031BD10B500F01CF8DFF8FC170A7CDA
:1017800014430C74BDE81040FEF7B2BC38B500F04D
:1017900010F80546DFF8E007017C21EA0404047430
:1017A000017C0A0703D408213C30FEF750FD00F00D
:1017B0007ABF0446FEF783BC2DE9FE4F05460020A4
:1017C000286000266846FFF708FE0446DFF8FC079D
:1017D000DFF8A8B7DFF8A08701904FF0FF3A0027A5
:1017E0004FF01909F8B2FFF766FE00281CBF817A96
:1017F000002916D0017A0126022921D0D8F83020FC
:10180000D168528A406951189BF8622009FB021185
:10181000FFF7C8FD01990A68B0FBF2F0504598BF88
:1018200082467F1C032FDDD330460CE0296002E0A6
:1018300008B1C5F800A0204318BF0120BDE8FE8F05
:1018400001204FF0000A002CF2D000280099EDD0C2
:101850005145EBD95146E9E77CB5DFF81C472178C3
:10186000022903D11920FEF735FC73BD2178012927
:101870001BD0FEF724FC05466846FFF79DFF04F1E8
:10188000DC0660B1009820B101463046FFF77EFDCE
:1018900008E03046FEF789FCFFF70DFF02E0304616
:1018A000FEF783FC2846FEF723FC73BD38B5DFF84E
:1018B000C8566C69696A002948D1002C41D0684635
:1018C000FFF78BFD00281CBF0098002803D00820DC
:1018D000FFF75CFF31BD0820FFF74CFF05F1140056
:1018E000FEF780FD6862D4E90601C143DFF8E8260F
:1018F000916093680342FBD1D368D4E906010343A6
:10190000D360D4E90601C94311605368D4E90601E4
:101910000B435360E4682046FEF7C5FC208840F680
:101920000201401A08D041F21E01401A04D041F6CB
:10193000E671401A012809D82146012000F021F95A
:1019400031BD022105F13C00FEF781FC31BDDFF81D
:101950002806016B8A6801F12003506830B1984273
:1019600018BF0246F9D101E000207047507B10F00B
:101970000F0F02BF488C40F609018842F4D10120C4
:101980007047F8B5DFF8F065DFF82C0B756AFEF7E5
:10199000F1FC0446DFF82C0B0268076802F0200215
:1019A000224018BF002D07F460270BD01346B56204
:1019B00000222846FFF7D3FC4FF4804106F13C009B
:1019C000FEF745FC3C400ED0DFF8B00590F8611002
:1019D00041EA544480F8614006F18C00BDE8F440CF
:1019E0000021FEF734BCF1BD2DE9F843DFF88C850A
:1019F00098F86100002450B10026012098F8611089
:101A000000FA06F211420ED1761C032EF6D398F896
:101A1000610030B1BDE8F4430021DFF8C405FEF7F2
:101A200016BCBDE8F18398F861101020B040014267
:101A300018BF0124FEF743FB98F861101122B24051
:101A4000914388F86110FEF753FBF0B2FFF733FDC6
:101A500002001CBF907A0028D9D092F90990DFF8D3
:101A60001C1C01EB8901002C0F681668556804BF27
:101A7000137A022B03D1D2E90401C3000CD410461F
:101A8000FFF7E0FC44B10020009000224FF000730B
:101A900049463046A847BAE7009700224FF0006356
:101AA000F6E738B5DFF8D054686A70B36A6AD2E9ED
:101AB0000601FEF7EFFB0446686A22460023FFF7A3
:101AC0004EFCA00718D56A6ADFF8F8399C68D2E99D
:101AD000060120F0020084439C606A6A1C68D2E917
:101AE00006018C431C6005F11C00696AFEF78CFC42
:101AF00000206862022104E03CB1686AA8624FF4E9
:101B0000804105F13C00FEF7A2FBFFF7DDFCBDE8DC
:101B10003140CBE6DFF86004B0F92C10B0F92E00AC
:101B2000814204BF0820FFF731BE70472DE9F04223
:101B3000074689463E6E14461D4606B1B047D7E9B2
:101B4000160104400D400020854208BF844216D093
:101B500080214846FFF7ECFBC7E91A4538B1D0E9C8
:101B60000823A243AB43C0E90823396E81600020FB
:101B7000386607F13800BDE8F042FEF7A4BCBDE8C6
:101B8000F08210B50A46DFF8F81A4B681C001CBF3B
:101B90008968014206D0DFF8E0430146206BBDE8CA
:101BA0001040184710BD0000704780B5FEF746FB97
:101BB000DFF8C4230146106B5268BDE808401047A7
:101BC000DFF8B4030FF21D424168914208BFFFF7EE
:101BD00043BE04213C30FEF73ABB000038B54FF05D
:101BE000FF30FEF757FBDFF890530FF2F931044650
:101BF000686888420FD10022DFF8F41A05F17000FE
:101C0000FEF76AFA02202870FFF7A1FE18B9FFF765
:101C10005BFCFFF74BFEDFF8280B044207D005F111
:101C20003C00BDE834404FF00051FEF710BB31BD21
:101C3000F8B5D14DEC6924B3E168082040F6040200
:101C400040F6030319B3C6B20EB30E889E421EBF00
:101C500096424968401EF5D114E0086818B9BDE8FD
:101C6000F240002056E710F1010F0AD0DFF8881685
:101C70000A68B0FBF2F105F58070BDE8F440FFF7AB
:101C800085BBF1BD206918222030FEF74BFCD4E95A
:101C90000A2300200021C4E90A01A06860B120697C
:101CA00003F0E2478F42B4F93C10A6681CBF02F073
:101CB000000203F0E243B047FEF701FA0646E88D62
:101CC000401CC0F30B00E885002084F83F0005F1BC
:101CD0001C00FEF787FB00F0F1FBB5F92E00B5F90B
:101CE0002C108842CDD1296B91F870000028B4D017
:101CF000002281F87020B2E738B50D46A8079E4C47
:101D00000ED5FFF795FFE06938B145F0020104F107
:101D10003C00BDE83440FEF79ABABDE831409BE58F
:101D2000680748D5DFF8D40501680A6B90476063FF
:101D3000606908B100692063206B4168DFF8040A1C
:101D40000A780260022000F013FF112000F025FF46
:101D500001202070DFF82819887810B90E2000F0D3
:101D60001CFF206BDFF8602440688168002904BFF5
:101D7000C068002804D00021D161DFF8CC091060D0
:101D80000720DFF87C1608600020516950610021AF
:101D90009069916150690FF2210140F0804040F05C
:101DA0000200506161601A20FEF78BF9BDE83240F5
:101DB0001920FEF786B931BD2DE9FF418046880024
:101DC00040F1C3806C4C206B416848688F68CE68D6
:101DD000010018BF8047380008BF002EDFF8E85325
:101DE0000DD0E8690028FCD00021E961380018BF57
:101DF000B84706B1B047DFF8980AFEF754FA00205A
:101E0000E86140F60206DFF88C0A28600120FEF740
:101E1000DDFADFF8EC2440F60A031380002050803E
:101E20000021107B00F0F00010735160507B00F037
:101E3000F00040F001005073D8F8087098F81100D5
:101E400079803988891B19D041F21E06891B15D06B
:101E500041F6E676891B012920D83E8B4FF6FF31EB
:101E60000E403E8320B14FF60F403040388315E0DE
:101E70002D20314660F3091139830FE03E8A4FF679
:101E8000FF310E403E8220B14FF60F403040388285
:101E900004E02D20314660F309113982002088F8D2
:101EA00011003E46706800281EBF01889942064610
:101EB000F8D14CE0B8F82000B8B10021A8F8221001
:101EC000C8F8241008F12C004378017803F0F003DF
:101ED00001F0F00143F001030170437008F12000AC
:101EE0005060507B00F0F000507369463846FEF7B2
:101EF00047FA6846FEF752FAE8690028FCD000214C
:101F0000E9610FF2E1006060607B30B100F0C1FF79
:101F10000028FBD000F0CEFF10E0DFF87C190A6843
:101F2000136801209847012808D0707B00F0F0006A
:101F300040F0010070730FF2490060600020E8611A
:101F40002F6039460120FFF71CFEBDE8FF8172605B
:101F5000707B00F0F000707360690028AAD0C06840
:101F6000008840F6030188421CBF40F60401884205
:101F7000A0D100206063B8E7800D0011E0080011D7
:101F8000DFF81829114200D17047DFF80C19012041
:101F900010B50A68DFF8084913689847012808D186
:101FA0000FF24100606000218748C161D44901609F
:101FB00010BDD1490A683220B0FBF2F104F1DC0017
:101FC000BDE81040FFF7E2B9E00600115C10001117
:101FD000402108400000044008100440400900115E
:101FE0000C0E00112DE9FC470E467104DFF8B078A5
:101FF0002DD5FEF764F8BD6A25B3D5E90A2303F0B1
:10200000E0414FF0000A02F00A04514508BF544570
:1020100018D1D5E90A48D5E90A23A24323EA0803DF
:10202000C5E90A23FEF764F8A86868B1D04508BF7F
:10203000544509D0B5F93C1028692246AC6843469E
:10204000A04701E0FEF754F826F48046B1E0B10065
:1020500051D5DFF8A8A2FFF7ACFBDAF854100A68F4
:1020600080460420904700281CBF207C002822D0F6
:10207000786B00B38146DAF80000E568016B8847A9
:10208000814531BFA0EB0909401EA0EB090000F11A
:1020900001094FEA1930A842E06002D205446D08F8
:1020A000E56040F2D171E068A0F5FA70884224BF83
:1020B00040F6C411E1604046FEF71AF8FFF747FC0E
:1020C00078B1D4F8188000224FF000736FF480715B
:1020D0002046C047786910B1FFF7BEFB01E046F02B
:1020E00002062046646900224FF080630021A04769
:1020F00026F000565DE0B00707D5FFF799FDF869B7
:10210000002856D126F0020653E0300751D5387C1E
:1021100001074AD4387C010647D46846FFF74CFBD8
:1021200010B10098002840D000240125E0B2FFF74C
:10213000C2F900281CBF817A002907D0857290F966
:10214000090005FA00F0C0B2FFF720FB641C022C66
:10215000ECD90320387007F58070FEF726F8FFF7FA
:10216000AFFA00210220FFF70CFD022000F09BFCDB
:10217000112000F0AEFC787C20B9396B01F13800F9
:10218000FEF7A1F9DFF8F824907810B90E2000F0DE
:10219000A0FC787B20B100217973052000F083FC3E
:1021A000DFF80007786000203870FFF755FB26F055
:1021B000080626B1314607F13C00FEF748F8BDE8B5
:1021C000F3870000010004060010044038B584B015
:1021D00000F0CEFBDFF8D006DFF8A4540168DFF88A
:1021E000C04641F0020101606846FDF7FCFF6878D7
:1021F000DFF8B81602906A4604F13C00FDF7FBFFD9
:102200006A46DFF8AC1604F18C00FDF7F4FF68466F
:10221000FDF766FF2878DFF89C2601906B461921B0
:1022200004F17000FDF729FF6B46DFF88C261A21B8
:1022300004F1C000FDF721FF00230022DFF87C1627
:1022400004F1DC00FDF779FF00230022DFF87016AF
:1022500004F58070FDF771FF0023DFF86826042184
:1022600004F5927000F00DFCA878012804BF0E2040
:1022700000F093FC04F11C00FEF7A9F804F114002F
:10228000FEF7A5F800202070A081A0600720DFF8ED
:10229000381681F86000002205206263A063227472
:1022A00005B0DFF80006606030BD2DE9F041DFF8D1
:1022B000F0556C699046002600E02468CCB18C4251
:1022C000FBD1B4B1276800224FF080532046FFF7BE
:1022D00046F8214605F11400FEF7ACF8214605F159
:1022E0001C00FEF791F8761C5FEA080018BF3C4618
:1022F000E7D13046BDE8F0815C1000118C01001080
:10230000B80E00112DE9FC4E824616460327300018
:10231000ADF800101D4614BF4FF080494FF0005932
:10232000FDF7CDFEBDF90010DFF8744511F1010F86
:10233000834605D1606A00280CBF6069606A04E0CA
:10234000BDF900000021FEF7F3FF40B390F83F1005
:102350000A0623D5616A884212D100224B46FEF755
:10236000FEFF002E14BFDFF86405DFF86405FDF7FB
:102370009AFF8DB161692A465046FFF796FF0BE040
:1023800001462A465046FFF790FF38B120780128D1
:1023900002D00221FFF790F9832700E00427584676
:1023A000FDF7A6FE3846BDE8F68E10B50C4600F0E7
:1023B000B2F80BD1FDF777FF04B1206000F0FF0009
:1023C000012801D1812010BD022010BD012010BDC7
:1023D000F8B504460D461646FDF771FE0746DFF8D0
:1023E000C004016B8C4218BF032404D13146284637
:1023F000FFF7DBFF04463846FDF77AFE2046F2BDC4
:1024000000000460F0B50746DFF8C80487B00E008E
:102410001546006818BF002D1C4649D03278D040C0
:10242000C00745D500212846FDF777FF7E60BD60D7
:10243000FDF745FEDFF868540646687C002835D174
:10244000FFF7C4FE687C401C687400F037F834B9AC
:1024500068460FF2A8411C22FEF764F86C4620681B
:102460003860208A7882012078746068002812BF62
:10247000002140F6C41001213974F860DFF85814C7
:10248000E0680A4600B10146B961A06800B10246A1
:102490007A61582107F12000FEF7A4F8002107F126
:1024A0003800FDF7F2FF2F63384602E000F006F82F
:1024B000002007B0F0BD000020000E003046FDF700
:1024C00017BE00000C100440F8B5FDF7F8FD00F051
:1024D00022F805D1DFF804341C68FDF709FE18E086
:1024E000FDF706FEDFF8F803DFF8F84301680A6B32
:1024F000904710F50032DFF8F00341F10003016965
:10250000A4FB026704FB03770020341847EB0105A6
:102510002C462046F2BDDFF888130A78022A70475D
:102520002DE9FE4F82460D4693461F46FDF7C7FD37
:102530006FF0010481460021DFF8B00300EB811049
:1025400090F83F20130603D5491C0829F4D33BE03B
:10255000DDE90C4801950090DFF8445305F58070E3
:10256000FDF723FEA88D401CC0F30B00A885009842
:10257000019900F108067160009800F13E02DFF851
:10258000700382F800B037602040A98DB186C6F88C
:1025900008A0202108EA010140F00207C6E9047101
:1025A00080200027C6E9067750708AF8707005F120
:1025B00014000099FDF728FF68690099884208BF58
:1025C000FFF74AF9B6F934404846FDF791FD204639
:1025D000BDE8FE8F2DE9F04107460E463000144657
:1025E0001D4601D5002010E0FDF726FE8046802123
:1025F0003046FEF79DFE060003D096F83F00010628
:1026000005D44046FDF725FE0220002133E0D6E93F
:10261000080144F00A0445F0E0452040294000222A
:10262000914208BF904211D04046FDF712FED6E914
:10263000080120402940C7E91A01D6E9082322EA07
:10264000000023EA0101C6E9080112E0B168DFF8E1
:10265000A402814202D0B1683966B060C7E916456C
:102660004046FDF7F6FD4FF0FF3107F13800FDF76A
:1026700021FFD7E91A01BDE8F08100009430044041
:10268000C46F0100DCB5DDE90667CDE900670446EB
:10269000FFF746FF0146204602B0BDE8D0400A22BF
:1026A0004FF0E04396E72846BDE83240FDF720BDF5
:1026B000530803F0010300E0012302F0010221E6C8
:1026C0000FF238211C22FDF72DBF00E000BF0022D1
:1026D0007EE680B56A46DFF82012FFF779FE812892
:1026E00003D100980002001602BD6FF07F0002BD0A
:1026F000A31A000070B50E461546FDF7E0FC8324D2
:10270000674A1EB1022E0ED008D313E0516A002989
:102710000FBF8024526A918F29800CE06A4991F89A
:1027200060202A8007E01278022A0CBF01210021D4
:10273000297000E00324FDF7DBFC204670BD00009B
:1027400002000040D02108405100070680B508462D
:102750008021FEF7EDFD00B1C06802BDE0B500F0DC
:1027600005F80121FFE7FEF7FAFE0EBD0192009188
:1027700091F904300A687047F8B505460C46FDF734
:102780009EFC0746E0B2FEF796FE802604001CBFC2
:10279000A07A00281AD0FFF7BEFE11D194F90910D3
:1027A000491D0906090C41F08161002241F0010137
:1027B0002846FFF70DFE06462046FEF743FE05E0DD
:1027C0002046FEF73FFEFFF747F881263846FDF723
:1027D0008FFC3046F2BD00002DE9F84305468946DE
:1027E00016468324FDF76BFCB9F1070F80462C4F8A
:1027F00047D8DFE809F004070D10131F2E41306899
:1028000028603FE001206874E8686030E86039E0E3
:102810003168698236E03068B86333E0306818B9EF
:102820008020FEF7A7FF2DE001282AD18020FEF7A7
:10283000ADFF27E03978002904BF7869002819D155
:1028400031681920FDF74AFC31681A20FDF746FC73
:1028500018E03978002904BF786900280AD1316866
:1028600007F13C00FDF7F7FC316807F18C00FDF73C
:10287000F2FC07E0002405E03078134981F860009D
:1028800000E003244046FDF733FC2046BDE8F28318
:102890000100070601010E04E00100100400002001
:1028A000800D0011F91C000000200940AB1B000046
:1028B000E9190000DD1B000083190000C11B0000A6
:1028C000151B000075160000E0080011010002044D
:1028D00001000104D4210840A91B00000430044079
:1028E0008C01001000093D00B80E0011E006001137
:1028F000FFEFFF9F2D1B000001000304FFFFFFFF00
:102900000000000000000000000000003A0100008C
:10291000000000000000000070B5DFF84047DFF85D
:1029200040072568EE68002301223421B04700B13A
:102930000120C0B270BDDFF82C07806870470246E6
:102940000020022904D1012A06D140F2EE2070476E
:10295000012A08BF4FF47A707047DFF8081791F822
:10296000E60020B1D1F81001002818BF00477047D9
:102970002DE9FE43DFF8EC8608F1E106B079002886
:102980007CD1DFF8E416DFF8E4760A6892090120CA
:1029900002F00102B071F271F87CDFF8D456DFF872
:1029A000D49670717868C8F810016846FDF7F4FB9A
:1029B000002101918DF8001002916B4600220FF268
:1029C000FD4108F10C00FDF7B8FB6B4600220FF249
:1029D000CD5108F13000FDF7B0FB6B4600220FF23D
:1029E000115108F15400FDF7A8FBB9680120884790
:1029F000DFF8840601786868C0F38154387D20B11F
:102A0000032C02D10121317003E0032C18BF022CEA
:102A10000DD1022000F0ACF8032CD9F800100CBF47
:102A20004FF47A7042F21070B0FBF1F118E0012C13
:102A300002D100F044FA1BE0D4B9022000F098F86B
:102A400000F086FA9847012803D1002000F037FAF9
:102A50000EE0D9F800003221B1FBF0F1B1FBF0F14A
:102A600008F15400FDF79DFB08F15400FDF79BFBB6
:102A7000286840075CBF002000F07AF80020BDE81D
:102A8000FE8338B5002408B1150002D16FF00204AE
:102A900007E08160C26003610146DFF8C805FDF709
:102AA000B3FC204632BD10B50446FDF708FBDFF845
:102AB000B4150A1992F8E9305B1E82F8E930DBB2EE
:102AC00033B98A68012303FA04F422EA04048C600F
:102AD0005FE0F8B50546FDF7F2FA0446DFF8841525
:102AE000481990F8F020521E80F8F020D2B27ABB3C
:102AF0000FF2C050DFF8847500EB850210F8255006
:102B00005688280615D539680A6A304690473A68CB
:102B1000916A3046884739680A6B30469047DFF83B
:102B2000601501200860DFF85C0501688907FCD5A5
:102B300007E0680611D501EB86010020D1F80421D9
:102B4000904705F03F05132DBCBF2846FFF7C1FF96
:102B50002046FDF7CDFA0020F2BD39688A6930467B
:102B600090473A68516B304688470228F9D1E8E728
:102B700010B50446FDF7A3FADFF8E8148A680123CC
:102B8000A3401A438A60214491F8E920521C81F83D
:102B9000E920FDF7ADFA002010BD2DE9F041064611
:102BA000FDF78DFA0446DFF8BC54A81990F8F01030
:102BB0004A1C80F8F02049BB0FF2F84818F82600AC
:102BC00000F03F001328B8BFFFF7E7FF08EB8600CF
:102BD000478818F82600DFF8A46401060ED531688E
:102BE000CA69384690473268516A38468847316822
:102BF000CA6A3846904700F01AF807E040060BD53D
:102C000005EB87010120D1F8042190472046FDF70C
:102C10006FFA0020BDE8F08131684A693846904774
:102C20003268516B384688470128F9D1EEE7DFF862
:102C3000501401200860DFF84C0401688907FCD5B6
:102C400070472DE9FE4F0746DFF81C04DFF81494A7
:102C50000168002600244A06A24609F1DC0504D5D5
:102C6000297B11B9202000F07AF9012F18BF6FF0ED
:102C7000010857D12868012852D102212960FDF7A7
:102C8000CAFD012000F06BF95FEA00084BD1FDF7A7
:102C9000D3FADFF8F813DFF8E47301900C60012039
:102CA000B96A0A689047012803D1002000F0AAF908
:102CB0000124DFF8DC130E60DFF8CC130A6809F199
:102CC000FF02907808B14FF0010A517809B14AF03B
:102CD000020A107808B14AF0040AE87F20B1396886
:102CE0000A6B4FF480609047A87F20B139680A6B67
:102CF0004FF481609047DFF88813DFF898B3012024
:102D000008604AF0200039688A699047DFF8881324
:102D10000120086099F80800C10709D501261BE0C9
:102D20006FF004087CE001202860FDF77FFD77E06C
:102D3000396A8A68584690470428F9D001280090DB
:102D400004D13A6A5368032158469847DFF84C0388
:102D50000168890889000160002000F0D5F9DFF8DA
:102D60002893D9F800003868816B88476EB90098BD
:102D7000012804D13A6A5368012158469847DFF880
:102D80001C03016841F0030101600120DFF800230A
:102D90001060504639684A699047E87F20B1396829
:102DA000CA6A4FF480609047A87F20B13968CA6A28
:102DB0004FF481609047B249B74A01200860002172
:102DC0001160032028603A68516B504688470128FB
:102DD000F9D1D9F80000042000F0C1F80646AB494B
:102DE00001200860D9F800109F4908688006FCD5CA
:102DF00014B1012000F006F900F0DCFA082000F020
:102E0000AEF80643012028600198FDF722FA9748A2
:102E1000008A00F04EFAFDF709FD0EB14FF0FF38C1
:102E20004046BDE8FE8F38B50446FDF748F9054633
:102E300021468C48FDF7FEFA2846BDE83240FDF7F2
:102E400057B93EB50024012804D020D303281CD054
:102E500017D31CE06846FDF79FF9824D9049019415
:102E60008DF8004002946B46012205F17800FDF7D1
:102E700064F900238B4A2C2105F19C00FDF7FDF835
:102E800005E000F0B3FA044601E000F071FB2046D3
:102E90003EBD38B5FDF713F97249054691F8E000DB
:102EA000012410B1FFF738FD04462846FDF720F94C
:102EB000204632BD002071E0000000007047F8B5E8
:102EC000664C674D032000901C23266877684FF0FE
:102ED000405200212846B847012000902846246827
:102EE000656809234FF400720021A847F1BD000076
:102EF00010B500F02DF89847022818BF032805D117
:102F0000FFF7DDFFBDE810400220CCE5012802D12B
:102F1000BDE81040D3E764480168C1F3815003283D
:102F200008BF4FF47A7004D002280CBF41F28830F9
:102F3000322050494B4C0A68B0FBF2F104F15400C6
:102F4000FDF72FF904F15400BDE81040FDF72BB94F
:102F500056490A681368042070470020704738B546
:102F60000546404804685CB1A068284205D0226943
:102F7000E36800212846984720B92468002CF3D143
:102F8000002032BD4FF0FF3032BD494901280CBF4F
:102F90000720002008600020704700007CB5FDF786
:102FA0008EF8304D314E044695F8E00050B1287A45
:102FB000410613D4FFF7B0FC80B100F068FC00209C
:102FC00085F8E0000220B568A84706461020FFF704
:102FD000C6FF012E11D10320A8470EE025490A683B
:102FE0003220B0FBF2F101B9012105F13000FDF70B
:102FF000D8F805F13000FDF7D6F82046BDE8764058
:10300000FDF776B838B5012823D128490A68136836
:10301000984701281DD000F02DFC124D012085F8A5
:10302000E000287A810616D4124802683221B1FBEA
:10303000F2F404B9012405F13000FDF7B6F8214699
:1030400005F13000FDF7ADF805F13000FDF7ABF804
:1030500001E000F042FC002032BD0000A40100109D
:1030600000A00C409C05002014100940AC6F01002A
:10307000B03F00505C10001182130011B801001025
:1030800028200860282008402C2009400C400940D6
:1030900000022243004003408001044324220840F0
:1030A000B93600004D340000B43F0050E00100107C
:1030B000000004608F0000008F0001008F000200FC
:1030C0008F000300900000018F00010190000002BA
:1030D000900000038F0001048F0000058F0008049A
:1030E0008F0000048A000006510000007F000100EC
:1030F0003F0004003F0002003F0001007F0002008B
:103100001628A8BF203870472DE9F84F8046974809
:10311000DFF85C920168974E8A0705D50820B071E8
:103120009548C9F80000C2E0944801680A689047D1
:103130008246934805682F1700247F1CA80208D4F4
:10314000CAF13E00C0100828C8BF08208742B8BF97
:1031500007468C480168C1F30460FFF7D1FF83463E
:1031600089480168C1F30440FFF7CAFF5F44152F87
:103170000146C8BF152704DC6FF009008742B8BFBD
:10318000074607F01F00814A40F4F8501080804A3B
:10319000106810F0030F18BF0124400748BF44F027
:1031A000020496F90700B8F1000F18BF44F00404B8
:1031B000AAEB0000042802DCB27994425DD0AAF1A7
:1031C0000F084FF0000BB8F1000FDC4604F00400CC
:1031D000704B24D408EB08184FEA282CBCF1070FD9
:1031E00088BF4FF0070CE646BEF1070F28BF4FF02F
:1031F000060E1A1D52F82E2053F82EE0A2EB0E0EEA
:103200000EF0FF0B10B1CEF307229344A20744BF88
:10321000CEF307429344E20748BF0BEB1E6B53F813
:103220002C2002F0FF0310B1C2F30720C318A0073F
:1032300044BFC2F30740C318E007A8EB0C2048BF07
:1032400003EB126300FB0BF0CF1B8030002F03EB6E
:103250001023D8BF0127342005F0FF0547437D43E5
:10326000B5FBF3F04FF6FF71884288BF08460AF3BA
:10327000070AB08086F807A0B47147480168B08893
:10328000316000211F2804D21F20B08004E04008D4
:10329000491CB0F5007FFAD20F38000941EAC0019D
:1032A0003E480143C9F800100020C9F80400BDE8F9
:1032B000F18F38B505463A480468A4B23CB32F48AC
:1032C00001680A6890472B4991F90720904205DA76
:1032D0006FF07F029042B8BF1046C871A54288883F
:1032E00034BF641B0124844210D32B4A13680A683C
:1032F0009A1A921C1F2A88BF1F22241A5208D440EF
:103300002418B4F5803F28BF4FF6FF748C8031BD80
:103310002448006800B9704730B523498A6802F034
:103320004063B3F1406F1FD0104B1C68A5071BD43E
:103330004C68A50718D41C680968C1F303511C31F7
:10334000090114F0050F04D088420DD224F00504C1
:1033500009E0814208D2100158BF44F00104500135
:1033600058BF44F004041C6030BD00000000094058
:103370003010094074100011FDFDA400EC01001094
:10338000B43F0050B81200503C1100506E6208402B
:10339000242208409C1300500820094000E7A48024
:1033A0003410094028500940AC3F0050EFF3108022
:1033B00072B67047EFF3108062B670470138FDD1E6
:1033C0007047704710B50C18FFF7F0FF411E894198
:1033D000C90FDFF85C2410680028FCD024680123A2
:1033E000136009B1FFF7E6FF204610BD38B5DFF8DE
:1033F000445428780024002802BFDFF83C14487D9C
:1034000000280AD0FCF75BFEA978002906BF01223C
:10341000AA700124FCF76CFE0CB1002032BD022022
:10342000FFF7A6FB0E20FFF7B8FBDFF810140868C3
:1034300008B1012032BDDFF808044022C2600260FA
:103440000120C8610020687032BD00002DE9FC41F8
:10345000DFF8EC1300200860DFF8E81301F1D8046E
:10346000A07A002837D00128DFF8DC53DFF8DC230E
:1034700032D1DFF8DC1316684BF2F52046430868BA
:10348000360AC0F3814001280BD1A86C0168884737
:1034900000F03BFA00F054FA3509C010454306EB42
:1034A000E536607B10B10021617306E0DFF8A4030C
:1034B000006820F07F4036187608DFF89C0306602D
:1034C000360C466001218160DFF86C13487D0028CE
:1034D00049D00521217348E0022809D11568284602
:1034E00000F00DF9A5F2FF55032D3CD308203BE079
:1034F00003283AD1106801F1B806A0F5C060316820
:10350000F061002948BF4942002848BF404281423B
:10351000A8BF002026DA7068D04F80B20090082340
:10352000D5F800C0DCF804804FF47F4230213846E3
:10353000C047B06880B200901223D5F800C0DCF814
:1035400004804FF4F80204213846C047B06980B2C5
:1035500000900A232D686E684FF44062202138469F
:10356000B047012020700B202073BDE8F34100BF5D
:103570002DE9F843DFF8CC82B94EDFF8E092B94C80
:10358000B94FAF4808F1E105E9784A1E0B2A00F26D
:103590009280DFE802F00630415F74415F74415F62
:1035A0007B8031680A68202090470F20E060072365
:1035B00041F61D5020614FF4C0720220009000219E
:1035C000D6F804C0DCF804404846A0477668484670
:1035D000D6F80C9007234FF4C0720021C847012091
:1035E00038600220E87008F17800BDE8F243FCF78B
:1035F000DABDBDE8F1830120E061287800281DBF15
:103600000021396103200620E8700320206000209B
:10361000786078688107E6D470684668E87803289F
:1036200008D1022100910523602200214846B047BD
:1036300004200BE000200090052360220021484672
:10364000B047E87806280CBF07200A20E870012060
:103650007860C8E7042903D12021A161012105E098
:1036600001220A29A2610CBF0321022169700021F5
:1036700021600821C160016001202060B9E70529AF
:103680000CBF06200920E8700020E1E70020386028
:1036900078600C20A6E700210160012067490860DE
:1036A0000E20FFF716FA0220FFF7FDF90120E8705F
:1036B0000020A8709DE7FEE762496B4891F8E4207E
:1036C000921E0A2A1AD8DFE802F0060A0E190A0E1C
:1036D000190A0E19120002689107FCD548E74168E3
:1036E0008A07FCD4FAE741688A07FCD5F6E7026846
:1036F0009107FCD441688A07FCD4EFE7FEE7F8B5F0
:103700000446564D30212846FFF75CFE4D4F07F129
:10371000B806C0F30720706004212846FFF752FE68
:10372000C0F38440B06020212846FFF74BFEC0F371
:103730008120B4F5C064B061346003D1002087F803
:10374000D800F1BD316997F8D80028B97068B16820
:10375000F060F461B0697061F06900284CBF6FF0EF
:103760000102022200EB40001018421000EB9270A0
:1037700001EBA0017268F260002912DC7069032875
:1037800005D10120153188421EDB01211CE00120FA
:103790000B318842A8BF0121521E48BF0022F260AF
:1037A00007E01E2912DD706928B915391E29C8BF26
:1037B0001E21032009E00B391E29C8BF1E21521CFF
:1037C0003F2AC8BF3F22F2600020706131610823A8
:1037D0001D4CF06880B200904FF47F422768D7F804
:1037E00004C030212846E0470120009011232768BB
:1037F000D7F804C04FF4003204212846E04730696E
:1038000080B2009012232768D7F804C04FF4F80262
:1038100004212846E047706980B200902846246859
:1038200065680A234FF440622021A847F1BD0000DB
:1038300000800C407D060020AC6F010004800C402D
:103840002C500C409C050020A401001008400C40A6
:10385000B43F0050102009403C600C4000A00C40D8
:10386000A001001000400C4034600C403748006854
:1038700000F0D6B810B5374C626D536801210320B3
:1038800098472068C16A88473349886010BD70B581
:10389000304C616D0A680120904701281BD0A56952
:1038A0002B48EE68002301223421B047A0B1FFF776
:1038B000DDFF2068C16A8847274B9A6827491C6842
:1038C000D860A4EB9404801A4843000C1860A0420E
:1038D00038BF20461860012070BD38B51D4C626DA0
:1038E0005368002103209847616D0A6801209047C2
:1038F00008B1FFF7BBFF2068174DC16A88476860B1
:10390000206E01688847286131BD10B50146144812
:10391000144B02681B68100400161B394843C01082
:1039200000EB2240120601FB01F412161B06624353
:1039300061431B1600EBA220594300EBA14010BDD0
:1039400000FB00F1C0EBA15000B2704780000010F6
:1039500000A00C408C0100106010001140420F00CC
:1039600090130050A41000504018491C1CBFB1F126
:10397000010100F8012DF9D170470040DFF800F097
:1039800079BB011000E006E0EFF31180202181F304
:1039900011887047000080F311887047FFF7EEBF71
:1039A000F2E7F8E7F0E7F6E70D49C20744BF012365
:1039B0000B60820744BF4FF480730B60400744BF25
:1039C0004FF480320A60704710B5064AC30748BFFB
:1039D0001160840748BF5160400748BF916010BD27
:1039E0000420094018200940DFF800F0E1BE011072
:1039F00070B5FFF7C7FF094E0446B0680021FFF716
:103A0000F3FF05467069B169451BA94238BF00251F
:103A10002046FFF7B8FF284670BD00BF78010020A0
:103A200070B50446FFF7C2FC451EAD41ED0F064ED2
:103A300030680028FCD0A047012131601DB1BDE8ED
:103A40007040FFF7B7BC70BD00800C40DFF800F09D
:103A500005C10110DFF800F001C10110DFF800F02E
:103A600035BD0110DFF800F005840110DFF800F02B
:103A700089840110DFF800F055A40110DFF800F090
:103A800019BD0110816A406A01F001B818B500241F
:103A9000010085B017D0132808BF0C240AD01E28B7
:103AA00005D0022808BF062404D0122801D107241B
:103AB00000E00B2400F0C0FE04A3DFF8E40A40F2AB
:103AC000811101F091F8204606B010BD5374617465
:103AD0007573204572726F7220203A2030782578F5
:103AE0002900000070B500F078FB0EE0FFF7AEFF94
:103AF000B169884206D00269D168A142F6D170BD91
:103B0000002070BD3046FFF7A1FF0646A86C864234
:103B1000F6D0B069FFF79EFFEAE7F8B504460D4618
:103B2000E06816461F46FFF7DDFF3B46417A0A462E
:103B30009A4201D20720F2BD0698C91A8842B4BF42
:103B40000746D71BE068C118BAB22846FCF7DAFC72
:103B500037800020F2BD38B50446211D2078DFF8FB
:103B6000445A01F00DF9287BC0F3800038B1E869B0
:103B700008B101F02FF9287B00F0FB0028732046E4
:103B8000BDE8324001F050BC2DE9FC410E46089DD5
:103B9000099CF06817469846FFF7A4FF00942B464F
:103BA000424639463046FFF7B8FFBDE8F6812DE9B9
:103BB000FF4E0D46814628780C9C0027022893462C
:103BC0001E4642F6021A14D168680178407801EB6B
:103BD000002189B251450CD103200190009429465F
:103BE000484601F073FE07001DD0384604B0BDE81A
:103BF000F08EE868FFF776FF827AA24202D333198B
:103C00009A4201DA0720F1E7B24238BF0D20EDD326
:103C1000017ACA0744BFA1194172E8683246594681
:103C20002044FCF76FFC142001F0FFFB80B340211F
:103C30000170A0F804906A890281297802291BD1B9
:103C400069680A78497802EB012292B2524513D191
:103C5000E9680968002200E0521CDFF88C5A2D78D0
:103C6000D3B2AB420BD231F823504D45F4D101EB26
:103C700083018A1CC26002E0E9682144C1600674C5
:103C800084720146DFF8640A00F001FF0028ACD01E
:103C90001520ABE71CB5049C0094C0B2FFF787FF6A
:103CA00016BD70472DE9F04F95B04FF00008012187
:103CB0000022074613E0F869302463430344891C5B
:103CC000187D10F0300F586A18BF491C00B1491C0C
:103CD000986A00B1491CD86A00B1491C521C3020B6
:103CE000019093B23C7EA342E5D3C9B20291102069
:103CF000DFF8FC1901F046FD814602980005000C32
:103D000001F093FB050023D01C2001F08EFB04463C
:103D10001C21FCF767FC002C1AD004F10C0001F008
:103D200054FEA061786800280CBF4FF0020B4FF0E2
:103D3000100B584601F079FB060009D05A4607F1EE
:103D40000801FCF7DFFB082001F06FFB5FEA000AC7
:103D500000F023818AF800B0CAF8046004A80FF2CA
:103D600040211022FCF7DEFBCDF81CA0AA463878D3
:103D700001281CBFDFF87C190591A7F802901022DA
:103D800004A92846FCF7BEFB01260397CDF8209036
:103D9000A346B9E0391DFCF7B5FB387D4FF00009AB
:103DA000810707F1210148BF4FF0010910F00C0F06
:103DB000087818BF49F0020908B149F001094878AC
:103DC00008B149F00209387F01F02FFB050071D0DE
:103DD0003A7FB969FCF796FB09A8102101F00CFEA7
:103DE0008DF824600A948DF82C900C95182001F021
:103DF0001CFB04005ED01821FCF7F4FB207A97F836
:103E0000201000F0FE00084320720020A0816061B5
:103E1000BDF800000AEB00102061397F61723A7F23
:103E2000A272BDF80010089A5118A1811022F983DE
:103E300009A9BDF80060FCF765FB387D761C10F021
:103E4000300F15D0082001F0F0FA050032D0281DFF
:103E5000286010220DF1340055A1FCF763FB00F03F
:103E6000D5F865614FF6FF70296801F015FD761CE5
:103E700057F8240FC0B1022001F0D7FA0546002000
:103E8000002D288016D03968088800BF4CA1020692
:103E900040EA526000F00100288010220DA8FCF7D3
:103EA00041FB00F0B3F8761C786888B1082001F077
:103EB000BCFA050071D07868016829601022416859
:103EC00069600DA842A1FCF72DFB00F09FF8761C5D
:103ED000B86890B1007901F0A8FA05005DD0B86823
:103EE000027901682846FCF70DFB0DA83CA11022C1
:103EF000FCF718FB00F08AF8761CDBF81800214666
:103F0000FFF7ACFD08F1010803990A7E5FFA88F01B
:103F100090422AD20198C9695FFA88F242438F1809
:103F2000012001F082FA040037D0387D30A12070E2
:103F3000102211A8FCF7F6FA3004761C14940AEB50
:103F40001030ADF80060102211A9FCF7DBFA3868D8
:103F500000280CBF02261026304601F066FA040045
:103F600018BF32467FF416AF17E05946DFF8340623
:103F7000C1F808A0806CFFF771FD00BF20A0029B74
:103F80000190102100915246DFF8181900F04AF90B
:103F900000F04CF915B0BDE8F08F0420FAE70000FE
:103FA00002000000A08401000100000000000000E9
:103FB00002000000B48401000300000000000000C3
:103FC00002000000AC8401000100000000000000BD
:103FD00002000000B88401000100000000000000A1
:103FE00002000000B0840100010000000000000099
:103FF00002000000A8840100010000000000000091
:10400000893B0000953C0000000000003004109542
:104010000AEB103010220DA9FCF774BADFF808196A
:104020000160704778B50446DFF8786589B00D46C1
:1040300006F12C0001F0C9FCF464B06306F15004F1
:1040400006F13C00257001F0C0FCB0641C2202A8FF
:1040500013A1FCF767FA009602ABDFF84C28DFF8F3
:104060004C1800F04BFB032001F0DFF970600322D5
:1040700012A1FCF747FA7068327801900321009191
:104080000023DFF82C1800F0CDF8DFF82808DFF85F
:104090002818A06061610AB0DFF89008A06170BDC7
:1040A00013000000A0000000A00000000700AAAA62
:1040B000AAAAAAAA007F01010000000002010600CE
:1040C000DFF83037DA6C62B1B02803D0D02808D1DD
:1040D000084607E008791E2803D10021432000F09C
:1040E0004FBE7047DFF8BC1418B50446C86C0028F2
:1040F0008BB060D0A078052804D05CD307283DD0D1
:1041000027D358E06189ADF80010E078002816BF89
:104110000228002001208DF80800207B08280CBF11
:10412000012000208DF809000622211D0DF102005A
:10413000FCF7E8F9E189ADF80A106946E089ADF8C5
:104140000C00208AADF80E00608AADF81000002047
:1041500024E0A088ADF80000A079132808BF022051
:1041600007D0082808BF012003D016280CBF032061
:10417000FF208DF80200694601200FE0E07880B949
:10418000E088ADF802006946E088ADF804002089B7
:10419000ADF806006089ADF80800022000F0E2FDED
:1041A00009E000F0F0FADFF81038DFF8F40340F22D
:1041B000FA4100F019FD0CB010BD38B500F00DF853
:1041C00001E0FFF743FCA96C884204D08268518962
:1041D000A142F6D132BD002032BDDFF818560446A8
:1041E000A86CFFF737BC38B504460D46A069FFF749
:1041F00031FC01E0FFF72AFCA169884203D08289E3
:10420000AA42F7D132BD002032BD10B504460120CC
:1042100001F0F6FB014606222046FCF773F9002068
:1042200010BD4946102001F0ADBA0746C0B2FFF7F5
:104230002DBC2DE9F04387B0064600208DF8140010
:104240000FF6E408307918B1022837D034D339E0BA
:104250001321ADF816107079C1075CBF01208DF8ED
:1042600014007079C0F3400028B99DF8140040F0A4
:1042700002008DF814007079C0F3800028B99DF811
:10428000140040F004008DF814000DF11605C54C23
:10429000DFF850980095002300F02EFAFFF7C5FFD5
:1042A0000FF6A405C0B100F066F800F064F800F065
:1042B00065F840F2C35121E01221CAE71022ADF89F
:1042C0001620C8E700F0FCF80FF66C0340F2B55179
:1042D00000F021FA062048E03088069006A90091F7
:1042E000012300F009FAFFF7A0FF58B100F043F8EE
:1042F00000F041F800F042F840F2C75100F00BFA2C
:10430000F8B230E07088069006A90091022300F010
:10431000F3F90646FFF78AFF40B100F029F800F0F4
:1043200027F800F02BF840F2CA5110E005A80090E1
:10433000032300F0E1F90646FFF778FF58B100F0DB
:1043400017F800F015F800F019F840F2CD5100F020
:10435000E2F9F0B207E0009000232278DFF8881736
:10436000FFF760FFC0B2FFF791FB07B0BDE8F08335
:10437000F0B2FFF78BBBF8B2FFF788BB00210491C6
:1043800003910291019100902B46022270472DE982
:10439000F847044685B015461F460020DFF8109503
:1043A000DFF84887DFF84867CCB18A4632780123C6
:1043B00000F056F85FEA0A0008D001F036F87060A5
:1043C000D0B152462146FCF79DF800E0706070685D
:1043D00032780190CDF800A00023FFF722FFDDB175
:1043E000B06818B13278022300F03AF838000AD0E9
:1043F00001F01BF8B06008B9042016E03A462946DF
:10440000FCF780F801E00020B06000970123B0685D
:1044100032780190FFF705FFC0B230B100F0ECF93F
:1044200040F21C6100F0E0FB062006B0BDE8F0871A
:1044300080B55C48DFF8BC160278102001F0A2F9C4
:10444000BDE80240C0B2FFF721BB80B5024613238E
:10445000DFF8A41600F005F8C0B200B10D2002BDCF
:104460004146102001F08EB907B588B005AAADF815
:104470001400DFF88816BDF82800ADF81A00BDF862
:104480002A00ADF81C00BDF82400ADF81600BDF8F8
:104490002600ADF81800102001F074F9C0B2112800
:1044A0000BD100F00DF8DFF858360FF27C6040F2C7
:1044B000816100F099FB072000E000200BB000BDF7
:1044C0000020049003900290019000900222704717
:1044D0003EB50446002506E021682A0601EBD240DD
:1044E000FFF7E0FB6D1C2279E9B29142F4D38DF81D
:1044F000000001946946002000F058FC00203EBDF9
:104500002DE9F84185B00746884615461C46FFF759
:1045100054FE0FF2146640B900F053F800970222DF
:104520000FF2346340F2C1610AE04146FFF75BFEDF
:1045300050B900F0F3F802220FF2346340F2CB617D
:1045400000F03CF80E202AE00C9A877ADFF8B435A8
:104550009742394608D200F027F8022240F2D16192
:1045600000F02CF808201AE02F4607EB020C6145FA
:1045700009DA00F019F83833022240F2D76100F06E
:104580001DF806200BE0017ACB0744BF5519457290
:104590000069C3682146D819FBF7B4FF00200AE080
:1045A000284B0000AC0200200020049003900290F1
:1045B00001900091704706B0BDE8F081304600F0F0
:1045C00013BB0021039102910191049070472DE9E2
:1045D000F041074686B015460D9800901A460C46E5
:1045E0000C9B29462046FFF78BFF06462046FFF727
:1045F000E4FD0FF2345840B9FFF7E3FF00940222C4
:104600000FF2545340F2437108E02946FFF7EBFDE7
:10461000040007D100F075F840F24D7100F07BF80E
:104620000E205FE060690168384601F077F90028E4
:10463000DFF8D4344DD00E9DC20701D5012D0AD02C
:10464000800701D5022D06D000F06FF800950222F8
:1046500040F25A7143E0246903AB4FF6FF721B210D
:104660003846FFF7FFF9059078B36089ADF8100080
:104670000022BDF80C000092FF21029101900DF183
:104680001203059A21463846FFF77EFAE80706D559
:104690000021009104AB3A46DFF870140DE0DFF81A
:1046A000540190F85010502001F053F8019004ABE1
:1046B000002000903A46DFF8581400F01FF8C0B20E
:1046C00018B11B2104A8FFF7D1F93046FFF7DEF936
:1046D00008E000F023F84433022240F2627100F057
:1046E0001AF8072067E70000694F0020573B0000D9
:1046F000B9070110A484010022784946102001F076
:1047000041B8002004900390029001900090022292
:104710000FF25C437047404600F066BA00210391F7
:104720000291019104900090704700200490039042
:10473000029001907047F0B50027012A054608BF96
:10474000012785B00E462C2000F06FFE04000DD02E
:104750000020009001943B460022DFF8B813204669
:1047600001F00EF92C60666200200AE000F00BF800
:104770000FF21C430FF2B03040F6E50100F034FABE
:10478000042005B0F0BD0020049003900290019039
:1047900000900322704778B5040085B00D46164698
:1047A00001D00A2D07D200F027F840F6211100F0C1
:1047B0001BFA06201AE0FBF79DFCDFF85C2310686B
:1047C0004FF47A71B1FBF0F0454329462046FBF7E0
:1047D00095FCA662204601F02BF918B12946204627
:1047E00001F028F92046FBF78DFC002006B070BDD3
:1047F00000000000AC020020002004900390029012
:104800000190009002220FF230330FF21C307047FB
:1048100000B585B058B900F00FF80FF28C330FF2E5
:10482000083040F6461100F0DFF9062002E0FBF701
:1048300061FC002005B000BD0021049103910291AC
:10484000019100900222704738B5102886B00A46C0
:10485000A8BF042024DAB1490B88012484402343F3
:104860000B80110001D0412A01DB082018E0ADF8CF
:10487000020000240723ADF804408DF80030DDE984
:1048800000019B4CA56E05ABA84748B1FFF718FE89
:104890000FF22833A4A040F6741100F0A5F9062009
:1048A00007B030BDF5870100A33C0000C130010016
:1048B000F94801002982010009850100F0B505468B
:1048C000102D85B01646A8BF06202ADAADF80600DE
:1048D00000910020ADF808000723854CD4F86470DF
:1048E00091A48DF80430DDE9010133460022B84778
:1048F000310018BF052801D0412E07DB00F05EF81B
:1049000040F6CA1100F064F808200AE048B100F04F
:1049100062F800950222824B40F6CF1100F058F861
:10492000052005B0F0BD0000CC020020C14301000D
:10493000F0B50646102E85B00C462BDA07218DF80F
:10494000001000216A4FADF80260ADF80410154662
:10495000BA6D284690472346DDE90001BC6E2A4621
:10496000A047290018BF05286FA401D0412D07DBFF
:1049700000F024F840F6FB1100F02AF8082018E0B7
:1049800050B100F028F800960222664B4FF42061E7
:1049900000F01EF806200CE0B96D80208847002248
:1049A0008DF80220ADF800606946012000F0FEF9A4
:1049B000002005B0F0BD0000508B010000200490E5
:1049C00003900290019000905FF0020280A3704774
:1049D000204600F009B90021049103910291019051
:1049E000704770B504460D46002603E000F014F849
:1049F0002060761CF0B2B0EB950FF7D315F0110FD5
:104A000008D000F009F805F01105012D04BFF6B239
:104A100004F82600002070BD00220021002001F0D3
:104A20002AB82DE9FF4107460E461C4601F0A2F8C0
:104A300000220021002001F0AFF880463A4609210B
:104A400001F04CF90090FBF7B7FB0746FBF7F6FACD
:104A50000546042101A801F09DF800988DF8060094
:104A60000296039401A9404601F0A3F9A8B2FBF70E
:104A7000E9FAB8B2FBF7A4FB6946404601F01CF91D
:104A8000404601F0F0F8002004B0BDE8F08138B5F0
:104A900004460D46102000F0C8FC68B18460C56073
:104AA0000146134CA06BFEF7D9FFE06C4FF080413C
:104AB000FEF7E0FF002032BD042032BD38B50C4CBB
:104AC000A06B70B107E0A96809B1E868884728467B
:104AD00000F0AAFCA06BFEF7D1FF0546A06B854253
:104AE000F1D131BD9D6C0100CD5C01002D61010053
:104AF000AC020020FD610100B57E01008567010068
:104B000048800100FC66010070660100450001104C
:104B1000CDFF0010853A000094910100741300113C
:104B2000D0890100F88901006363323678785F61CB
:104B300070692E6300000000696E76616C69642004
:104B4000706172616D2120004661696C7572652E1D
:104B50002E2E25640000000073657276696365205F
:104B60006E6F7420666F756E643A202564000000D5
:104B70004368617261637465726973746963205616
:104B8000616C7565206E6F7420666F756E640000D1
:104B90006372656174652C206E6F206D656D6F7238
:104BA00079206C6566740000696E76616C696420BA
:104BB0006F626A656374202570202000696E7661DB
:104BC0006C696420706172616D65746572000000CB
:104BD000696E76616C6964206C656E67746800004C
:104BE00038494860704700002DE9FE4F80460C466A
:104BF00015469A46FBF722FADFF8C86038A23388D8
:104C000001907E21581C308006F1860906F10800CB
:104C100001F005FA00F060F806F1080101EB000B65
:104C200029480268D76AB847074680B201F004FAFB
:104C30000022264B01F00EFA0022254B01F00AFA61
:104C400001F0DAFA00903B0C27A2A9EB0B015846C1
:104C500001F0E5F900F040F806F10801022D0844E2
:104C60001C4A02D0032D03D001E0243200E0483278
:104C700043460094A9EB000101F0D1F900F02CF8B3
:104C80000246706806F1080101F00EFB0CAB5246BB
:104C90007E2106F1080001F01FFB00F01DF806F16F
:104CA000080108440D2202700A234370821C06F199
:104CB0000800121A706801F0F7FA0198FBF7C2F9C0
:104CC000BDE8F78F000000118C0100100000F03EDD
:104CD00000408F40FC6D010006F1080001F004BBAC
:104CE00023253036752000005B2025642E253033C7
:104CF00075205D200000000038B500F025F800F0B8
:104D000020F831490A78042A08BF0C24FFE705D0AF
:104D100001EB8203521C5C600A70002480B2FBF736
:104D200091F9A8B2FBF74CFA204632BD38B500F035
:104D30000BF800F006F825490A78042A08BF0C246D
:104D4000E5E70546FBF77AB90446FBF735BA38B50F
:104D5000FFF7FAFFFFF7F5FF1D490A78042A08BF9D
:104D60000C24D4E7F8B500F01DF8174F00F016F842
:104D700012B1294620469047761C042EF6DBF1BD81
:104D8000F8B500F00FF8114F00F008F812B12946FD
:104D900020469047761C042EF6DBF1BD381D50F8F6
:104DA0002620704704460D4600267047F8B5FFF7E9
:104DB000F9FF074FFFF7F2FF12B12946204690474F
:104DC000761C042EF6DBF1BDA80B0011BC0B001104
:104DD000D00B0011F8B50446104801688847104A06
:104DE00005461068002101E00146006880B100F12D
:104DF0000806B44221BF00F108078688BE19A64202
:104E0000F2D3036800290CBF13600B6001F088FA2D
:104E100004490A682846BDE8F240104740030020D4
:104E20000010001144030020DFF800F021C0011041
:104E3000DFF800F02DB40110DFF800F0CDAC011068
:104E4000DFF800F02DC00110DFF800F0F99B011031
:104E5000DFF800F0FDB1011020B108233C22002151
:104E6000FFF7E2BF704780B5FBF7A6F9ADF8000089
:104E7000FBF7E4F8ADF80200009802BD01B5BDF8FB
:104E80000200FBF7DFF8BDF80000BDE80240FBF7C9
:104E900097B938B5DFF8C449207801282CD0012112
:104EA0002170DFF8BC29DFF8BC1989088900521A83
:104EB000A26161610A4602E0002342F8043BA36953
:104EC0005D18AA42F8D39B0801EB8302002042F848
:104ED000040CE8230B60A06980088000EC38C1F85E
:104EE000E800E831A160002000F007F8E060A16967
:104EF0006069A060091F216131BDF8B5002400265A
:104F0000051D15F003001CBF291D0D1AFFF7ABFF8F
:104F1000DFF8482901465160112D34BF9368D368EA
:104F20001868002803D580F00040002619E03700FB
:104F300013D02768D3F800C06744AF42276010D36E
:104F40003846ECB1401B042811D3605145F00040B5
:104F5000206013695D1B156111E0A84214D201267F
:104F60001C46034418680028DBD1002408E01369BC
:104F700020681B1A1361226842F000422260241D3F
:104F800000F04FFA2046F2BD1C46DAE710B50446A1
:104F9000FFF769FFDFF8C418486054F8042C22F0CA
:104FA000004244F8042C0B69D2180A61221F8B6856
:104FB0009A4238BF8A60BDE810405FE72DE9F041B2
:104FC000FFF751FFDFF89418CA68486000240025F5
:104FD000002600270AE00E460125144605E02B00B6
:104FE000F9D02368CB1823608E190A441168B046A3
:104FF000BE4238BFB846002905D0F0D581F0004147
:1050000000254746F1E7FFF739FF4046BDE8F0814C
:1050100010B50446DFF844088169216000696060CA
:10502000FFF7CCFF09282CBF08380020A06010BD76
:10503000DFF828180A69121A40F22D139A4228BF85
:10504000FFF75BBF0020704780B5FFF722FF4BF6EC
:10505000BE2002BD084650E7084697E702B56846FD
:10506000FFF7D6FF01BD0120704738B50446FFF7B2
:10507000FAFE00220C23DFF8F0175343CD18A96C79
:1050800021B18C4206D0521C032AF3D3FFF7F6FE5F
:10509000002032BDFFF7F2FE05F1480032BD70B5C9
:1050A0000546FFF7E0FE044600210C22DFF8B807B2
:1050B0004A438618B06C48B1854210D0491C032978
:1050C000F3D32046FFF7DAFE002070BD3065B564EB
:1050D0000021FFF7ADFEF06408B901F02DF920467C
:1050E000FFF7CCFE06F1480070BD38B50446FFF767
:1050F000BAFE0025DFF870270C216943515A21B10F
:105100008C4206D06D1C062DF6D3FFF7B7FEFF20AC
:1051100032BD1AE310B504462088FFF7E6FFFF28EA
:1051200002D14FF0FF3010BD0C21DFF83C2748437F
:105130001044816811B96FF0010010BD2046BDE830
:105140001040084702460FF24470104738B500205F
:105150000C21DFF814270024002501FB00F3134481
:10516000401C03289C641D65F7D30020002301FB2D
:1051700000F4401C13530628F9D3BDE8314088E6FB
:105180002DE9F8478FB081468846FBF7D3FA0546EC
:105190000027DFF8D86647451FD26846FFF75CFE58
:1051A00009EB07114A6806928A68089200220B6888
:1051B0000493C868059069463046FFF73DFE040039
:1051C00011D0FFF750FE82462046FFF768FF50B12E
:1051D0005046FFF753FE7F1CDDE72846FBF7AEFA8B
:1051E00010B0BDE8F08701F0A7F800BFF8B5684639
:1051F000052141604FF47A728260DFF87416DFF89F
:1052000074260091C2600121FFF7BAFF05B000BD0E
:1052100038B504460D46FFF726FE002145F80C1C64
:10522000226812B9256006E00A4652F80C1C0029D3
:10523000FAD142F80C5CBDE832401FE680B5FFF7BA
:10524000FFFDFFF712FF10B96FF0040002BD816887
:1052500009B9022002BD4068AFE006280ADA0C2234
:10526000DFF804365043185A00281CBF4FF6F87276
:10527000904202D14FF0FF30704708800020704705
:1052800030B5DFF8F4552A680C464FF47A71A1FB6B
:105290000001002301F054F8002902D8B0F1004FBA
:1052A00002D36FF0020030BD2060002030BD014607
:1052B000886849680847F8B505460E46FFF7C0FDFF
:1052C000FFF7EDFE04000DD0FFF7CDFD01460022F3
:1052D0000C27DFF8943557433B44188820B1521C03
:1052E000062AF5D301F028F84FF6F8700027188049
:1052F0005C609F602A706068306000F092F8002067
:10530000F2BD0C3842E670B5044615461E46084606
:10531000FFF7EBFE0146FF2902D14FF0FF3070BDD1
:1053200033462A462046BDE8704080E07CB50546FD
:10533000164600F09EF8040010D128886946C0B2D5
:10534000FFF78BFF28B13068FFF7DBFF6FF0050038
:1053500076BDBDF800002880FFF770FF204676BDBF
:1053600038B50546FFF76CFDFFF77FFE0446FBF7F7
:1053700069F9002818BF012800D014B96FF00400A3
:1053800032BD65B900200090009B60684FF000427C
:105390000021FFF759FD401E8041C00F32BD15F1BD
:1053A000010F08BF4FF0FF30EDD069462846FFF7E8
:1053B00067FF0028E8D032BD80B54FF00041FEF70E
:1053C00059FB002002BD2DE9F843054600F09AF98B
:1053D000FFF765FE04006FF0020920D0FFF743FDE0
:1053E000014600220C23DFF880045343034418884D
:1053F00040B1854211D0521C062AF3D300F09CFF25
:10540000BDE8F2831D805C609E603A706068C8F8F9
:10541000000000F006F80020F2E700F002F848462D
:10542000EEE708462AE568E5B0E501E6F0E52DE996
:10543000F8430D46062DBCBF04460628164699467D
:105440006FF0020806DAFFF70EFD00F000FA19B956
:10545000FFF714FD40460AE0FFF710FD00F0EDF9FC
:10546000786840684FF00041FEF704FB0020BDE87B
:10547000F2832DE9F04106460F469046FFF7E0FC27
:10548000FFF7F3FD050008BF6FF004001BD0FFF726
:10549000EAFCA968002441B10C46A4F10C010023E8
:1054A0000A68AA60FF250B608D72FFF7E7FC0CB954
:1054B000022008E0A4F10C000179317040793870C5
:1054C000C8F800400020BDE8F08182B001208DF8CE
:1054D00000009DF800000028FBD100F02DFF00BF68
:1054E000FBF7C4B850B5DFF8906332686FF0004442
:1054F000A4FB020100234FF47A7200F021FF00297F
:1055000002D8B0F1004F00D3204650BD7CB50C4608
:1055100015461E466946FFF7B3FE30B9009833467C
:105520002A46214600F002F8002076BD2DE9F0431E
:105530001D4689B02C6880460E4617462CBB0C20B1
:10554000FFF7DBFC04006FF0030918D008232422C6
:1055500000216846FAF7DAFD0020ADF8100005904A
:10556000069400236A464146DFF81003FFF770FCFB
:10557000206030B9FFF7A9FF2046FFF707FD484636
:1055800017E06660A7602C600BE0DFF8F46230681B
:10559000804705462068FAF7ADFDA7602846716888
:1055A000884720684146FAF7A9FD2068FAF7AAFD66
:1055B000002009B0BDE8F08300281CBF0068FAF79E
:1055C00099BD7047E0B58DF80400684600F068FFAB
:1055D0009DF805000EBDE0B50190684600F096FF0D
:1055E0000EBDE0B50190684600F09AFF0EBD2DE9B2
:1055F000F84384B0044600F085F8FFF736FD054611
:1056000000200290FBF71EF8002818BF012800D0E8
:1056100015B96FF0040072E044B900200190FBF767
:1056200025F8814601980124814425E014F1010FF9
:1056300008BF4FF0FF30F1D001A92046FFF720FE50
:105640000028ECD05BE0039902A8FFF7E1FD686851
:105650004FF00051FEF70EFA0198012410F1010FEE
:1056600018BF002808D0FBF701F8B9EB000031D0D3
:10567000019981422ED30190019B68684FF000523E
:105680000021FFF7E1FB28B303AA69460DF10100F1
:10569000FFF7EFFE0400DFD19DF801000DF10201DC
:1056A000FFF7DBFD0028CED1039A9DF80010BDF86E
:1056B0000200B0470028C6D017B1BDF802003880FC
:1056C000B8F1000F1CBF9DF8001088F800100C986E
:1056D00003990160FFF7B2FD029EFFF7C4FB01468C
:1056E00056B1324600E0024652F80C0C0028FAD1BE
:1056F000A86842F80C0CAE60FFF793FE204605B098
:10570000BDE8F0830E4617469846FFF799BB38B5BB
:10571000FFF796FB0446FAF795FF002818BF01280B
:1057200011D0FFF7A0FB00254F4A0C236B43D15A41
:1057300039B1D11849680B68A34206D06D1C062DFB
:10574000F3D3FFF79BFBFF2032BDFFF797FBE8B2D7
:1057500032BDE0B5ADF800008DF8061000204949D3
:105760000A68ADF802006846904710B99DF8070036
:105770000EBDFF200EBD1078422801D101207047D8
:10578000002070470CB478B504460E4687B0FAF78F
:1057900059FF0CAD002814BF0128FFF796FE142016
:1057A0000021FF22ADF8100002918DF8122006961C
:1057B0000595FFF7ACFF05AB03222146FFF7A3FDDC
:1057C000002001A901900091002300222E4941F2FE
:1057D0008830FFF70CFF012805D020B9019820B1CF
:1057E000FFF78FFD01E0FFF770FE0598006808B035
:1057F00070BC5DF80CFB2DE9F8430D46062DBCBFCF
:1058000004460628164699466FF0020806DAFFF7A6
:105810002AFB00F01CF819B9FFF730FB40460AE0FC
:10582000FFF72CFB00F009F8786840684FF0005152
:10583000FEF720F90020BDE8F283A9F1080004700A
:1058400045708670494678680830FFF7E1BC0C2245
:10585000054B02FB05F7DF1979687047840B0011CF
:10586000FF3F002043090020180B001145510000A4
:10587000718501006803002094910100AF5200007F
:105880004003002048030020775700001551000016
:10589000674E00007D4E000038B54FF6FF74A04201
:1058A0000DD10020334A0025137898420DDA21F8F3
:1058B000204001EB8003401C9D70C0B2F4E700F073
:1058C00046F810B104800021817031BDF8B504465E
:1058D00006980D460026F0B9022B1AD11778517898
:1058E000079807EB0127C043BAB202420FD1EB6819
:1058F0001968204600F012F8B9B288420CD0E86866
:105900000168BAB2204600F00FF8064604E080268F
:1059100002E00D2600E00B263046F2BD80B500F017
:1059200016F800B1807802BD70B504460D461646E3
:1059300000F00DF840B929464FF6FF7000F007F867
:1059400008B9112070BD04808670002070BD30B58C
:10595000002200E0521C074C2578D3B2AB4206D29D
:1059600031F823408442F5D101EB830030BD0020A3
:1059700030BD0000694F0020DFF800F0A1B6011033
:105980002DE9F04389B08046894617461D46109C94
:10599000119E0823242200216846FAF7B7FB154917
:1059A00006964FF47A700A68B0FBF2F14D43059504
:1059B0004F43ADF810406B463A4649464046FAF729
:1059C000A9FB404609B0BDE8F08310B504460021AC
:1059D000FFF7D2FF204610BD10B50446FEF74EF883
:1059E000A04204D08468FFF71FFD204610BD0020B0
:1059F00010BD000094910100002200F0A5BDC92A4D
:105A000010B5084958B908480278022A07DB074C44
:105A100022461031002000F0B1FD204610BD01F1FA
:105A2000100010BD504C0020594F0020044E0020A3
:105A3000006970470161704738B5FAF7FFFA394AD3
:105A4000117829B938490C68002323700125157095
:105A500080B20CE038B5FAF7F1FA0446324D284628
:105A600000F06CF8A0B2FAF7EDFA284632BDBDE8B6
:105A70003240FAF7E7BAF8B50D461446FAF7DEFAFF
:105A800086B229480268117809B900F057F8274F03
:105A90003DB93B681D684FF4807101220846A84754
:105AA00015E0284600F027F858B114B14FF0FF3048
:105AB00020700820FDF70DF83046FAF7C3FA0020F1
:105AC000F2BD3B68AA68696828681D68A84718493C
:105AD000184A012008601068C007FCD50220396808
:105AE0004A68904705460CB1002020703046FAF70E
:105AF000A9FA2846F2BD01004FF0FF3010D00A6825
:105B00001AB1403AB2F57F5F0AD24A6822B1A2F5D3
:105B10008072094B9A4203D28968102938BF00204D
:105B2000704700007D130011E46F0100CC010010EC
:105B3000A80250420880024000FFFF00026811786E
:105B400029B90123137041680868FDF726B870472A
:105B50000168DFF88824DFF8883403201060012210
:105B60001A70CB685878002804BF01F16400FAF776
:105B7000AABC704710B5DFF86C44207828B9012121
:105B8000201DFAF782FC0121217010BD4FF0FF317A
:105B900001607047017070472DE9F84F81460D464E
:105BA000DFF8407484B092464FF0FF31381DFAF7A9
:105BB00081FCDFF8348458F8394008F1040050F8CB
:105BC0003960FAF77CFA2168002902D408DD012D3A
:105BD00006D1FAF78DFA381DFAF775FC00203FE080
:105BE0004FF0FF3B002D14BF5946491C216008EBC4
:105BF000C909FAF77DFA206801282DDCBAF1000FF7
:105C000004BFCDF800B0EA46DAF80000606001A8F1
:105C1000B568FAF765FACDF8049001AB307BDFF890
:105C2000CC230290294604F12C00FAF726FA002131
:105C300004F16400FAF729FC012104F14800FAF7A5
:105C400024FC7068FCF7A9FF4B460FF27112042187
:105C500004F11800FCF715FF381DFAF734FC48462C
:105C600005B0BDE8F08F38B504684568206810B904
:105C70004FF0FF3032BDFAF722FA216800294CBFFD
:105C80000021491E2160FAF733FA206890B904F127
:105C90002C00FAF712FA04F14800FAF709FC04F1B3
:105CA0006400FAF705FC6868FCF713FF04F11800BC
:105CB000FDF7B9F8002032BD38B505680C46FAF793
:105CC000FEF921682A7A01238B409A432A724FF009
:105CD000FF312160FAF70CFA002032BD2DE9F843BC
:105CE00005680E46144605F1480001274FF0FF39BC
:105CF0004946FAF7DFFB3246297A092AC84609D114
:105D0000072207FA02F3194202D0521EF9D51DE00C
